:03000000020006F5
:03005F0002000399
:0300030002006296
:100062007580007593006380017E607FEA001EBE8A
:10007200FF011FEE4F70F65380FE7E607FEA001E86
:0A008200BEFF011FEE4F70F680DC98
:06003500E478FFF6D8FD9F
:100013007900E94400601B7A00900090780175C96B
:1000230000E493F2A308B8000205C9D9F4DAF27523
:02003300C9FF03
:10003B007800E84400600A790175C900E4F309D837
:10004B00FC7800E84400600C7900900001E4F0A318
:04005B00D8FCD9FAFA
:0D00060075810712008CE582600302000383
:04008C007582002257
:00000001FF
